:100000000A128A11FC2F00308A000408840A820731
:1000100000343134313431343134313431343134E9
:1000200031343134313432343234323432343234A3
:10003000323432343234323432343334333433348D
:100040003334333433343334333433343334343477
:100050003434343434343434343434343434343460
:100060003434353435343534353435343534353449
:100070003534353435343634363436343634363433
:10008000363436343634363436343734373437341D
:100090003734373437343734373437343734383407
:1000A00038343834383438343834383438343834F0
:1000B000383400344C34343420342D342034433438
:1000C0007A3465347334633420344B347534623499
:1000D0006134213400344C34333420342D34203412
:1000E00043347A3465347334633420344B34753498
:1000F00062346134213400344C34323420342D34B1
:10010000203443347A3465347334633420344B34CC
:10011000753462346134213400344C343134203449
:100120002D34203443347A346534733463342034CA
:0C0130004B3475346234613421340034E7
:100D28000130F0000030F1000A128A1183270A12FC
:100D38008A110430F5001C30F400F40BA12EF50BD9
:100D4800A12E000008007130831603138F0083164C
:100D58000317880189018312031389018801880117
:100D6800860185018316031389018801870186019D
:100D780085010800FA007A080A128A112D270A123A
:100D88008A117008F8007808F9000130F902790A28
:100D9800031908007A0884000A128A1103200A122B
:100DA8008A110A128A1157270A128A110130F8008B
:100DB8007808FA07C92E83120313A0010A128A11B0
:100DC800A7260A128A110A128A1105270A128A11FD
:100DD8000A128A1194260A128A110630FD0013306D
:100DE800FC00AD30FB00FB0BF72EFC0BF72EFD0BC8
:100DF800F72EFE2E85300A128A11BE260A128A1193
:100E0800042F0A128A11B2270A128A112830F00018
:100E18000030F1000A128A1183270A128A110C3055
:100E2800F0000030F1000A128A1183270A128A1191
:100E38000630F0000030F1000A128A1183270A12E6
:100E48008A118030F0000030F1000A128A118327DD
:100E58000800F6007608F2007208F70077088400A8
:100E68000A128A1103200A128A11003A0319412F23
:100E78000130F2007208F707322F7608F20080304E
:100E8800F300F209F309F20A0319F30A7708F400E8
:100E98008030F50072087407F00073080318730AAD
:100EA8007507F1000800F1007108F0000430031024
:100EB800F00CFF3E031D5B2F70080F39303883128A
:100EC800031388007108F00004300310F00CFF3E93
:100ED800031D692F70080F391038880071080F3901
:100EE8003038880071080F39103888008530F000D4
:100EF800F00B7C2F8530F000F00B802F0800710874
:100F0800F3007008F2000430FF00730DF30CF20CCC
:100F1800FF0B892F72080F392038831203138800BA
:100F28007108F3007008F2000430FF00730DF30C31
:100F3800F20CFF0B9A2F72080F39880070080F39CE
:100F48002038880070080F3988008530F200F20BCD
:100F5800AB2F8530F200F20BAF2F0800FF30831261
:100F6800031388003430F100F130F000F00BBA2F91
:100F7800F10BBA2FBF2F23308312031388000330DD
:100F880088001A30F100F830F000F00BC92FF10B8F
:100F9800C92F000023308312031388000330880010
:100FA8000330F1009730F000F00BD82FF10BD82F59
:100FB800DD2F2330831203138800033088000330A9
:100FC800F1009730F000F00BE72FF10BE72FEC2F33
:100FD8002230831203138800023088000330F100A6
:100FE8009730F000F00BF62FF10BF62FFB2F0800CF
:080FF80083010A128A11DF2EA9
:04400E00E4F8FFFFD4
:00000001FF
